:020000040800F2
:1000000000200020E5020008ED020008F1020008CF
:10001000390300083D0300088503000800000000C4
:10002000000000000000000000000000CD030008F8
:10003000D103000800000000D50300088114000867
:10004000E9030008E9030008E9030008E9030008E0
:10005000E9030008E9030008E9030008E9030008D0
:10006000E9030008E9030008E9030008E9030008C0
:10007000E9030008E9030008E9030008E9030008B0
:10008000E9030008E9030008E90300080000000094
:10009000000000000000000000000000E90300086C
:1000A000E9030008E9030008E9030008E903000880
:1000B000E9030008E9030008E9030008E903000870
:1000C000E9030008E9030008E9030008E903000860
:1000D000E9030008E9030008E9030008E903000850
:1000E000E9030008E9030008E90300080000000034
:1000F0000000000000000000000000000000000000
:1001000000000000000000000000000000000000EF
:100110000000000000000000E9030008E9030008F7
:1001200000000000000000000000000000000000CF
:1001300000000000000000000000000000000000BF
:1001400000000000000000000000000000000000AF
:10015000000000000000000000000000000000009F
:10016000000000000000000000000000000000008F
:10017000000000000000000000000000000000007F
:10018000000000000000000000000000000000006F
:10019000000000000000000000000000000000005F
:1001A000000000000000000000000000000000004F
:1001B000000000000000000000000000000000003F
:1001C0000000000000000000000000005FF808F1DF
:1001D00000B583B000F0E8FF304B314A1360314A7C
:1001E0001360314B314A03E0116819600433043263
:1001F0002F498B42F8D32A4B1A682E4B9A4204D1CE
:10020000284B1A682C4B9A4200D0FEE7234B2B4A0E
:1002100013602B4A13602B4B02E000221A60043358
:10022000294A9342F9D3254B1B6813B9244B1B6809
:1002300003B1FEE700F0BCFF01A8694600F04EFFE5
:10024000224C234B1C1BA410002504E01F4B53F829
:10025000253098470135AC42F8DC1E4C1E4B1C1B68
:10026000A410002504E01B4B53F8253098470135B6
:10027000AC42F8DC0198009901F006F90546174CEC
:10028000174B1C1BA41004E0013C144B53F8243002
:100290009847002CF8DC284600F0F2FEBABADECA15
:1002A00000000020840000200000002090210008B1
:1002B0008800002078563412325476988800002046
:1002C000340100208800002038010020EC030008E1
:1002D000EC030008EC030008EC030008EC03000842
:1002E000EC03000808B5FFF773FF00BFFEE700BF8F
:1002F0001EF0040F0CBFEFF30880EFF30980714686
:10030000364A10472DE9F04182B007468846084B2F
:100310005D6B9C6B9E6A074800F0F4FECDF8008090
:10032000384631462A46234600F046FFFEE700BF26
:1003300000ED00E02C210008FEE700BF1EF0040FD6
:100340000CBFEFF30880EFF309807146244A104791
:100350002DE9F04182B007468846084B5D6B9C6BE7
:100360009E6A074800F0CEFECDF800803846314640
:100370002A46234600F020FFFEE700BF00ED00E024
:100380003C2100081EF0040F0CBFEFF30880EFF3D0
:1003900009807146134A10472DE9F04182B00746A3
:1003A0008846084B5D6B9C6B9E6A074800F0AAFE6E
:1003B000CDF80080384631462A46234600F0FCFE40
:1003C000FEE700BF00ED00E048210008FEE700BFA7
:1003D000FEE700BFFEE700BF70470000050300080E
:0C03E0005103000899030008FEE700BF6D
:1003EC0010B50446C378012B03D92048752100F0C1
:1003FC0077FE63780F2B03D91C48762100F070FE32
:10040C00A3780F2B03D91948772100F069FEE37804
:10041C0003B3174BDA68D243C2F30222C2F10400D1
:10042C000F2323FA02F1637803FA00F2A3780B404E
:10043C0013431B012278DBB20E490A4482F80033C5
:10044C002378580903F01F03012202FA03F341F841
:10045C00203010BD23785A0903F01F030121994065
:10046C0002F12003034A42F8231010BD781E000845
:10047C0000ED00E000E100E010B504461C4B984292
:10048C000BD003F58063984207D003F5A053984234
:10049C0003D01848BC2100F023FE154B9C420AD116
:1004AC004FF40070012100F0BFFD4FF400700021EB
:1004BC0000F0BAFD10BD104B9C420AD14FF4806085
:1004CC00012100F0B1FD4FF48060002100F0ACFD83
:1004DC0010BD0A4B9C4209D14FF40040012100F0A1
:1004EC00A3FD4FF40040002100F09EFD10BD00BFA5
:1004FC0000240140A01E000800280140003C0140DF
:10050C0038B505460C464D4B98420BD003F580632D
:10051C00984207D003F5A053984203D04848E521F0
:10052C0000F0DEFD2368F3B1B3F5803F1BD0B3F5CB
:10053C00003F18D0B3F5403F15D0B3F5802F12D043
:10054C00B3F5A02F0FD0B3F5C02F0CD0B3F5E02F1F
:10055C0009D0B3F5002F06D0B3F5102F03D03848CF
:10056C00E62100F0BDFD2379012B03D93448E721A6
:10057C0000F0B6FD6379012B03D93148E82100F076
:10058C00AFFDA36843B3B3F5003F25D0B3F5802F7F
:10059C0022D0B3F5C02F1FD0B3F5002F1CD0B3F56C
:1005AC00202F19D0B3F5402F16D0B3F5602F13D0F0
:1005BC0093B1B3F5003F0FD0B3F5C02F0CD0B3F50A
:1005CC00002F09D0B3F5202F06D0B3F5402F03D060
:1005DC001B48E92100F084FDE36833B1B3F5006FEB
:1005EC0003D01748EA2100F07BFD237C013BDBB2F2
:1005FC000F2B03D91248EB2100F072FD6B6823F42A
:10060C00702323F480732268217942EA0122134378
:10061C006B60AA680B4B1340E168A2680A436179CE
:10062C0042EA41021343AB60EB6A23F47002237C71
:10063C00013BDBB242EA0353EB6238BD00240140BC
:10064C00A01E0008FDF7F1FF38B504460D46114B0E
:10065C0098420CD003F58063984208D003F5A05360
:10066C00984204D00C484FF49A7100F039FD012DDA
:10067C0004D9094840F2351100F032FD25B1A368C8
:10068C0043F00103A36038BDA36823F00103A3600A
:10069C0038BD00BF00240140A01E000870B50546FF
:1006AC000C461646154B98420CD003F580639842C5
:1006BC0008D003F5A053984204D0114840F26B11B6
:1006CC0000F00EFD012E04D90D484FF4B67100F068
:1006DC0007FD24F4FC639BB203B924B9084840F22B
:1006EC006D1100F0FDFCE4B21EB16B681C436C6034
:1006FC0070BD6B6823EA04046C6070BD002401407B
:10070C00A01E000810B504460A4B98420CD003F505
:10071C008063984208D003F5A053984204D0064851
:10072C004FF4C27100F0DCFCA36843F00803A36033
:10073C0010BD00BF00240140A01E000810B50446E7
:10074C000B4B98420CD003F58063984208D003F50C
:10075C00A053984204D007484FF4C97100F0C0FC74
:10076C00A36813F0080F01D0012010BD002010BDAC
:10077C0000240140A01E000810B504460A4B984204
:10078C000CD003F58063984208D003F5A05398422F
:10079C0004D006484FF4D57100F0A2FCA36843F0D6
:1007AC000403A36010BD00BF00240140A01E00087C
:1007BC0010B504460B4B98420CD003F5806398425D
:1007CC0008D003F5A053984204D007484FF4DC71CD
:1007DC0000F086FCA36813F0040F01D0012010BDBB
:1007EC00002010BD00240140A01E0008F8B50746EB
:1007FC000E4614461D46354B98420CD003F58063CB
:10080C00984208D003F5A053984204D030484FF4D6
:10081C00167100F065FC112E04D92D4840F25921B7
:10082C0000F05EFC631EDBB20F2B04D9284840F2AB
:10083C005A2100F055FC072D04D9254840F25B21C4
:10084C0000F04EFC092E0CD9F968A6F10A0303EB53
:10085C00430307229A4021EA02029D401543FD60A2
:10086C0009E03A6906EB460107238B4022EA0303B1
:10087C008D401D433D61062C0CD87A6B013C04EB7A
:10088C0084041F21A14022EA010306FA04F1194352
:10089C007963F8BD0C2C0CD83A6B073C04EB840440
:1008AC001F21A14022EA010306FA04F1194339631E
:1008BC00F8BDFA6A0D3C04EB84041F21A14022EA26
:1008CC00010306FA04F11943F962F8BD0024014052
:1008DC00A01E000810B50446012804D908484FF49E
:1008EC00936100F0FDFB2CB1064A936843F40003BE
:1008FC00936010BD034A936823F40003936010BD0A
:10090C00A01E00080024014010B504464F4B98422D
:10091C0025D01433984222D0143398421FD014336C
:10092C0098421CD01433984219D01433984216D0E4
:10093C001433984213D003F5627398420FD01433DA
:10094C0098420CD01433984209D01433984206D0F4
:10095C001433984203D03E486F2100F0C1FB23684A
:10096C0023F001031B041B0C236000232360636032
:10097C00A360E360354B9C4205D1364A536843F083
:10098C000F03536010BD344B9C4205D1314A536860
:10099C0043F0F003536010BD304B9C4205D12D4AFF
:1009AC00536843F47063536010BD2D4B9C4205D1CA
:1009BC00284A536843F47043536010BD294B9C4242
:1009CC0005D1244A536843F47023536010BD264B61
:1009DC009C4205D11F4A536843F47003536010BD09
:1009EC00224B9C4205D11B4A536843F07063536001
:1009FC0010BD1F4B9C4205D11E4A536843F00F0398
:100A0C00536010BD1C4B9C4205D11A4A536843F0ED
:100A1C00F003536010BD194B9C4205D1154A536825
:100A2C0043F47063536010BD154B9C4205D1114AC1
:100A3C00536843F47043536010BD124B9C4204D175
:100A4C000C4A536843F47023536010BD08000240F5
:100A5C00D01E0008000002401C0002403000024082
:100A6C0044000240580002406C00024080000240EA
:100A7C0008040240000402401C04024030040240FE
:100A8C00440402405804024038B505460C46504B0D
:100A9C00984225D01433984222D0143398421FD058
:100AAC00143398421CD01433984219D01433984202
:100ABC0016D01433984213D003F5627398420FD0BA
:100ACC00143398420CD01433984209D01433984202
:100ADC0006D01433984203D03E48CF2100F000FBDF
:100AEC00A368102B04D01BB13A48D02100F0F8FABF
:100AFC00E368013B4FF6FE72934203D93548D1218E
:100B0C0000F0EEFA2369402B04D01BB13148D221FE
:100B1C0000F0E6FA6369802B04D01BB12D48D32179
:100B2C0000F0DEFAA3694BB1B3F5807F06D0B3F5C4
:100B3C00007F03D02748D42100F0D2FAE3694BB1EF
:100B4C00B3F5806F06D0B3F5006F03D02148D521E3
:100B5C0000F0C6FA236A202B04D01BB11D48D62105
:100B6C0000F0BEFA636AB3F5405F0AD0B3F5005FDC
:100B7C0007D0B3F5805F04D01BB11648D72100F025
:100B8C00AFFAA36AB3F5804F04D01BB11148D8213A
:100B9C0000F0A6FA2B6823F4FF4323F07003A1683E
:100BAC00226A11432269114362691143A2691143FC
:100BBC00E2691143626A1143A26A0A4313432B6030
:100BCC00E3686B602368AB606368EB6038BD00BFA3
:100BDC0008000240D01E000838B504460D461F4BD5
:100BEC00984226D01433984223D01433984220D004
:100BFC00143398421DD0143398421AD014339842AF
:100C0C0017D01433984214D003F56273984210D065
:100C1C00143398420DD0143398420AD014339842AE
:100C2C0007D01433984204D00D4840F2291100F03B
:100C3C0057FA012D04D90A484FF4957100F050FA77
:100C4C0025B1236843F00103236038BD236823F0EA
:100C5C0001031B041B0C236038BD00BF08000240BD
:100C6C00D01E0008F8B505460C46474B98421BD0E1
:100C7C0003F58063984217D003F58063984213D034
:100C8C0003F5806398420FD003F5806398420BD034
:100C9C0003F58063984207D003F58063984203D034
:100CAC003A48B22100F01CFAE3788BB1042B0FD038
:100CBC00282B0DD0482B0BD0142B09D0102B07D080
:100CCC001C2B05D0182B03D03048B32100F008FAA8
:100CDC0023881BB92D48B42100F002FAE37803F005
:100CEC000F06304613F0100F0AD0A378013BDBB28D
:100CFC00022B03D92548BB2100F0F2F9A078304330
:100D0C002378E3B12E68002216E00123934021885A
:100D1C00194099420FD197000F21B94026EA0106DC
:100D2C0000FA07F10E43E178282901D16B6102E04A
:100D3C00482900D12B610132072AE6D92E6023887D
:100D4C00FF2B20D96F6800211AE001F10802012362
:100D5C00934022881A409A4211D14FEA810E0F22F9
:100D6C0002FA0EF627EA060200FA0EF71743E278AB
:100D7C00282A00D16B61E278482A00D12B6101311D
:100D8C000729E2D96F60F8BD00080140001F000878
:100D9C0038B504460D46144B98421CD003F58063BD
:100DAC00984218D003F58063984214D003F5806301
:100DBC00984210D003F5806398420CD003F5806301
:100DCC00984208D003F58063984204D0074840F25B
:100DDC00691100F085F925B904484FF4B57100F09C
:100DEC007FF9256138BD00BF00080140001F0008D5
:100DFC0038B504460D46144B98421CD003F580635D
:100E0C00984218D003F58063984214D003F58063A0
:100E1C00984210D003F5806398420CD003F58063A0
:100E2C00984208D003F58063984204D0074840F2FA
:100E3C00791100F055F925B904484FF4BD7100F053
:100E4C004FF9656138BD00BF00080140001F000864
:100E5C0010B50446A0B1802812D0902810D0A0283C
:100E6C000ED0B0280CD0C0280AD0D02808D0E0284A
:100E7C0006D0F02804D006484FF4197100F030F970
:100E8C00044A536823F0F0031C43546010BD00BFA8
:100E9C00341F00080010024010B5044680B1B0F5B4
:100EAC00806F0DD0B0F5A06F0AD0B0F5C06F07D031
:100EBC00B0F5E06F04D0064840F27E2100F010F946
:100ECC00044A536823F4E0631C43546010BD00BF14
:100EDC00341F00080010024010B5044680B1B0F574
:100EEC00806F0DD0B0F5A06F0AD0B0F5C06F07D0F1
:100EFC00B0F5E06F04D006484FF4267100F0F0F81E
:100F0C00044B586820F4605040EAC400586010BD8F
:100F1C00341F00080010024010B5044668B1B0F54B
:100F2C00804F0AD0B0F5004F07D0B0F5404F04D039
:100F3C00054840F2023100F0D3F8044A536823F418
:100F4C0040431C43546010BD341F00080010024085
:100F5C0010B50446012806D9042804D00A484FF4D9
:100F6C00507100F0BDF8094B00221A701A70012C58
:100F7C0002D0042C04D010BD0122044B1A7010BDF9
:100F8C000522024B1A7010BD341F000820100240BD
:100F9C0038B504460D4620F4AA6323F0070303B9C1
:100FAC0020B90C4840F22B4100F09AF8012D04D9DD
:100FBC00084840F22C4100F093F825B1064B5A69D1
:100FCC0014435C6138BD044A536923EA0404546138
:100FDC0038BD00BF341F00080010024038B504466D
:100FEC000D460E4B034003B920B90D4840F24A415F
:100FFC0000F076F8012D04D9094840F24B4100F07D
:10100C006FF825B1074B9A6914439C6138BD054AAA
:10101C00936923EA0404946138BD00BF0200C0FF49
:10102C00341F00080010024038B504460D460E4B24
:10103C00034003B920B90D4840F2A44100F050F828
:10104C00012D04D9094840F2A54100F049F825B119
:10105C00074BDA681443DC6038BD054AD36823EAD1
:10106C000404D46038BD00BF0200C0FF341F000868
:10107C0000100240FEE700BF08B5034800F056F828
:10108C000120FFF7F7FF00BF641F000808B50D4BE8
:10109C001B6813B90C4A0B4B1A600A4B1A68C31C19
:1010AC0023F00303134409498B4206D900F0ACFA30
:1010BC000C2303604FF0FF3008BD02490B60104653
:1010CC0008BD00BF8C00002038010020001C00204F
:1010DC0001230360014B0B60704700BF040000202C
:1010EC0008B503460A460348194600F005F8FFF711
:1010FC00C3FF00BFB81F00080FB400B583B004AB2A
:10110C0053F8042B01930848802100F0B5FA011E16
:10111C0003DD054800F03EF80146084603B05DF8D3
:10112C0004EB04B0704700BF9400002010B50446D7
:10113C0000F070FA0146204600F02CF8024801211C
:10114C0000F028F810BD00BFA820000810B4002241
:10115C001AE04FF06043D3F8803E13F0010F06D035
:10116C004FF06043D3F8003E13F0010F01D110464D
:10117C000DE04FF060431B68002BFAD004784FF061
:10118C0060431C70013201308A42E2D308465DF89C
:10119C00044B704708B5FFF7D9FF08BD08B500F040
:1011AC00D1F808BD08B500F0F7F808BDF8B504464D
:1011BC000D4617461E462648FFF79EFF2548216818
:1011CC00FFF79AFF24486168FFF796FF2348A16850
:1011DC00FFF792FF2248E168FFF78EFF2148216953
:1011EC00FFF78AFF20486169FFF786FF1F48A16956
:1011FC00FFF782FF1E48E169FFF77EFF1D48FFF7EE
:10120C007BFF1D482946FFF777FF1C4CE16A1C4801
:10121C00FFF772FF216B1B48FFF76EFFE16B1A485B
:10122C00FFF76AFF15F0800F03D018483946FFF717
:10123C0063FF15F4004F03D015483146FFF75CFFF0
:10124C001448FFF759FF14480699FFF755FFF8BDEE
:10125C001020000820200008302000084020000842
:10126C005020000860200008702000088020000832
:10127C0090200008A0200008AC20000800ED00E041
:10128C00BC200008CC200008DC200008EC20000862
:10129C00FC2000080C2100081421000882B0002357
:1012AC0001930093244A136843F480331360224B58
:1012BC001B6803F400330093019B01330193009BE3
:1012CC001BB9019BB3F5A06FF1D11B4B1B6813F439
:1012DC00003F02D00123009301E000230093009B08
:1012EC00012B26D1144B5A685A605A685A605A68B6
:1012FC005A605A6822F47C125A605A6842F4981266
:10130C005A601A6842F080721A600B4B1B6813F01B
:10131C00007FFAD0084B5A6822F003025A605A68D0
:10132C0042F002025A60044B5B6803F00C03082B7A
:10133C00F9D102B0704700BF0010024008B5FFF7AA
:10134C00ADFF08BD08B5114B1A6842F001021A60D6
:10135C0059680F4A0A405A601A6822F0847222F4C3
:10136C0080321A601A6822F480221A605A6822F4B9
:10137C00FE025A604FF41F029A600022DA62FFF7F5
:10138C00DDFF4FF00062034B9A6008BD0010024075
:10139C000000FFF800ED00E01D4B5B6803F00C0350
:1013AC00042B06D0082B08D01BBB1A4A1A4B1A6008
:1013BC0022E0184A184B1A601EE0154A536852680E
:1013CC00C3F38343023312F4803F05D1134A02FB6B
:1013DC0003F3114A13600FE00D4AD26A02F00F02B8
:1013EC0001320C49B1FBF2F203FB02F30A4A13601F
:1013FC0002E0084A084B1A60054B5B68C3F3031301
:10140C00074AD25CD2B204490B68D3400B607047D8
:10141C000010024000127A001C00002000093D0060
:10142C000C0000200A4B1B680A4AA2FB03239B09F1
:10143C00013BB3F1807F09D2074A5360F021074B7F
:10144C0083F823100023936007231360704700BFB9
:10145C001C000020D34D621010E000E000ED00E015
:10146C00034B1B681BB1024A1368013B13607047A6
:10147C002001002008B5FFF7F3FF08BD2DE9F0416E
:10148C0092B00120FFF764FD0020FFF7E1FC002083
:10149C00FFF702FD0020FFF71FFD0020FFF73CFDCA
:1014AC0001200146FFF774FD4FF405700121FFF791
:1014BC0095FD12238DF8003000248DF801408DF835
:1014CC00024001258DF803506846FEF789FFFFF7AF
:1014DC00A9FF4E23ADF818308DF81B40434806A9E0
:1014EC00FFF7C0FB4FF44073ADF8183003238DF8B1
:1014FC001A3010278DF81B70DFF80881404606A9BA
:10150C00FFF7B0FB3A4E3046FFF7FEF9394B079325
:10151C00394B089309940A950B940C944FF48073EF
:10152C000D934FF480630E930F944FF4005310936C
:10153C001194304607A9FFF7A7FA30462946FFF762
:10154C004BFB40464FF40071FFF752FC2B4E3046DC
:10155C00FEF792FF01948DF808408DF809404FF486
:10156C006023039304948DF81450304601A9FEF7C0
:10157C00C7FF304639462A462346FFF737F9284637
:10158C00FFF7A8F930464FF408712A46FFF786F8A2
:10159C0030462946FFF758F83046FFF7B3F817489E
:1015AC00FFF7CCF80028FAD11448FFF7E5F81348F8
:1015BC00FFF7FEF80028FAD1002301E000BF013349
:1015CC000F4A9342FADD0F484FF48071FFF7E0FBAE
:1015DC00002301E000BF0133094A9342FADD0948B8
:1015EC004FF48071FFF704FCE6E700BF00080140F0
:1015FC00080002404C24014024010020002401403A
:10160C003F420F0000100140014B1868704700BFAB
:10161C0080000020034613F8012B002AFBD1181A76
:10162C000138704730B5141E9BB0054604DA8B2385
:10163C0003604FF0FF301CE04FF40272ADF80C2049
:10164C000CBF224604F1FF32029205924FF6FF7254
:10165C0000910491ADF80E2069461A461E9B00F0CD
:10166C0075F8431CBCBF8B232B6014B1009B00226C
:10167C001A701BB030BD000073B506460D461446FB
:10168C000093044B314618682A462346FFF7CAFFDD
:10169C0002B070BD800000202DE9F0478E688246B4
:1016AC00B3420C469046994640D38A8912F4906F07
:1016BC003AD02568096902236F1A656905EB45055F
:1016CC0095FBF3F57B1C4B449D4238BF1D465305DF
:1016DC000FD5294600F034FB064698B121693A46ED
:1016EC0000F0C4FAA38923F4906343F08003A38130
:1016FC0013E02A4600F07AFB064670B95046216981
:10170C0000F0DAFA0C23CAF80030A3894FF0FF304E
:10171C0043F04003A381BDE8F08726613E44266078
:10172C004E466561ED1BA560B14500D24E46324672
:10173C002068414600F0A5FAA36800209B1BA3601B
:10174C0023681E442660BDE8F08700002DE9F043B5
:10175C009DB003938B8906461C060D4690460CD50E
:10176C000B6953B9402100F0EBFA2860286110B9DD
:10177C000C233360CCE040236B61002309932023BE
:10178C008DF8293030238DF82A3043461C4613F847
:10179C00012B1AB9B4EB08090FD002E0252AF5D1B8
:1017AC00F8E73046294642464B46FFF775FF0130B5
:1017BC0000F0A980099B4B4409932378002B00F07F
:1017CC00A28000234FF0FF320493079305920693F7
:1017DC008DF853301A9304F101084446DFF8489110
:1017EC0021784846052200F033FA08F10108049BE1
:1017FC0030B1C9EB00000122824013430493ECE7A3
:10180C00D80644BF20228DF85320190744BF2B2241
:10181C008DF8532022782A2A02D0079923460EE00D
:10182C00039A0134111D12680391002ABBBF524266
:10183C0043F0020307920792B8BF04930AE01C46D8
:10184C0022780133303A092A03D80A2000FB0121FF
:10185C00F5E7079123782E2B1AD163782A2B0AD11E
:10186C00039B02341A1D1B680392002BB8BF4FF068
:10187C00FF3305930CE0611C00220C4623780131E8
:10188C00303B092B03D80A2000FB0232F5E7059206
:10189C00DFF8988021784046032200F0D9F938B15E
:1018AC00049AC8EB00004023834013430493013493
:1018BC0021781A48062204F101088DF8281000F04E
:1018CC00C7F988B1164B33B9039B073323F00703D1
:1018DC000833039313E003AB0093304604A92A4664
:1018EC00104BAFF3008007E003AB0093304604A924
:1018FC002A460C4B00F092F8421C074603D0099B79
:10190C003B44099341E7AB895B0601D4099801E09C
:10191C004FF0FF301DB0BDE8F08300BF642100081C
:10192C0000000000A51600085A21000860210008DC
:10193C002DE9F84391461F468A680B690646934287
:10194C00B8BF1346C9F8003091F843200C46DDF8B7
:10195C00208012B10133C9F800302368990642BFC8
:10196C00D9F800300233C9F80030256815F00605A7
:10197C001CD094F843302268003318BF0123920620
:10198C001FD5E118302081F843005A1C94F84510FB
:10199C002244023382F8431013E03046394604F1F6
:1019AC0019020123C047013007D00135E368D9F88B
:1019BC0000209B1A9D42F0DBDBE74FF0FF30BDE8C7
:1019CC00F8833046394604F14302C0470130F4D065
:1019DC002268D9F80050E36802F00602042A08BF16
:1019EC005D1B2269A3680CBF25EAE57500259342AF
:1019FC00C4BF9B1AED184FF00009A9450ADA30460E
:101A0C00394604F11A020123C0470130D5D009F13F
:101A1C000109F2E70020BDE8F88300002DE9FF4141
:101A2C000C461746227E98466E2A06460A9B01F102
:101A3C00430100F0AA8012D8632A23D00AD8002AC6
:101A4C0000F0B780582A40F0C68084F84520DFF8B3
:101A5C00F8E151E0642A1ED0692A1CD0BBE0732A3D
:101A6C0000F0AB8009D86F2A2BD0702A40F0B380DD
:101A7C00226842F02002226039E0752A21D0782AAF
:101A8C0035D0A8E01A6804F14205111D19601368DD
:101A9C0084F84230A3E020681A6810F0800F03D05D
:101AAC00101D1860136805E04506F9D5101D186067
:101ABC00B2F90030002B3BDA2D225B4284F8432034
:101ACC0036E020681A6810F0800F03D0101D1860E3
:101ADC00136804E04006F9D5101D18601388227EA7
:101AEC00DFF864E16F2A0CBF08220A221CE078227E
:101AFC00DFF858E184F845202268186812F0800F4E
:101B0C0000F104051D6001D0036802E05506FBD509
:101B1C000388D00744BF42F0200222601BB9226820
:101B2C0022F0200222601022002084F8430002E000
:101B3C00DFF814E10A226568002DA8BF2068A560B3
:101B4C00A4BF20F00400206003B965B10D46B3FBBF
:101B5C00F2F002FB10331EF8033005F8013D03468A
:101B6C000028F4D100E00D46082A0BD12368DA07CF
:101B7C0008D5236962689A42DEBF302305F8013C20
:101B8C0005F1FF35491B21612EE025681A6815F017
:101B9C00800F606903D0151D1D60136808E015F0F7
:101BAC00400F02F104051D60136801D0188000E09D
:101BBC001860002323610D4616E01A68111D196088
:101BCC00156800212846626800F042F808B1401BF5
:101BDC006060636804E004F1420584F8422001234C
:101BEC002361002384F84330CDF800803046214631
:101BFC0003AA3B46FFF79CFE013002D14FF0FF30A9
:101C0C001FE0304639462A462369C0470130F5D0DB
:101C1C0023689B0705D4E068039B9842B8BF18461D
:101C2C000FE00025E368039A9B1A9D42F3DA3046D5
:101C3C00394604F119020123C0470130DED00135C9
:101C4C00F0E704B0BDE8F0816B2100087C210008AE
:101C5C0010B5C9B202449042034605D01C7801303D
:101C6C008C42F8D1184610BD002010BD10B5431E93
:101C7C000A44914204D011F8014B03F8014FF8E7E4
:101C8C0010BD814210B501EB020301D3421E0BE0E3
:101C9C009842FBD28118D21AD34204D013F8014DCA
:101CAC0001F8014DF8E710BD994204D011F8014B31
:101CBC0002F8014FF8E710BD30B500293CD051F8BF
:101CCC00042C0B1F1D49002AB8BF9B180A680C4630
:101CDC0012B95A600B6030BD93420DD21968581876
:101CEC00904201BF5A5852181A60426823605A60D9
:101CFC0030BD994203D80A4651680029F9D11468BD
:101D0C0015199D420AD11B682344D01888421360D0
:101D1C0012D10868034413604B680CE002D90C2301
:101D2C00036030BD1C681819884201BF08684968F7
:101D3C00001918605960536030BD00BF18010020B5
:101D4C0070B5CC1C24F0030408340C2C38BF0C24C4
:101D5C00002C064603DA0C233360002070BD8C4245
:101D6C00F9D3204A136810461946A1B10A68121B10
:101D7C000ED40B2A03D90A608B188C501FE08B42AF
:101D8C000BBF5A684A6802605A6018BF0B4616E0CF
:101D9C000B464968E9E7144D2B681BB9304600F037
:101DAC004BF828603046214600F046F8421C0346AA
:101DBC00D1D0C51C25F0030585420AD11C6003F166
:101DCC000B001A1D20F00700821A0AD051429950BC
:101DDC0070BD3046E91A00F02FF80130BBD02B460D
:101DEC00ECE770BD1801002014010020F8B507467F
:101DFC0015460E4621B91146BDE8F840FFF7A0BFC5
:101E0C001AB9FFF759FF2846F8BD00F025F8A8428B
:101E1C000ED238462946FFF793FF044650B131469F
:101E2C002A46FFF723FF38463146FFF745FF01E00E
:101E3C003046F8BD2046F8BD38B5064C00230546A3
:101E4C0008462360FFF722F9431C02D1236803B133
:101E5C002B6038BD1C01002051F8040C0028BEBFBB
:101E6C00091851F8043CC018043870472E2E2F73F3
:101E7C00797374656D2F7372632F73746D3332665F
:101E8C00312D7374647065726970682F6D6973633A
:101E9C002E6300002E2E2F73797374656D2F737261
:101EAC00632F73746D333266312D73746470657285
:101EBC006970682F73746D3332663130785F61648A
:101ECC00632E63002E2E2F73797374656D2F7372CE
:101EDC00632F73746D333266312D73746470657255
:101EEC006970682F73746D3332663130785F646D4E
:101EFC00612E63002E2E2F73797374656D2F7372A0
:101F0C00632F73746D333266312D73746470657224
:101F1C006970682F73746D3332663130785F677017
:101F2C00696F2E63000000002E2E2F737973746579
:101F3C006D2F7372632F73746D333266312D73741E
:101F4C00647065726970682F73746D3332663130EA
:101F5C00785F7263632E630061626F727428292C40
:101F6C002065786974696E672E2E2E002C2066759C
:101F7C006E6374696F6E3A200000000061737365C4
:101F8C007274696F6E2022257322206661696C65FC
:101F9C00643A2066696C6520222573222C206C69BA
:101FAC006E65202564257325730A000061737365C3
:101FBC0072745F706172616D2829206661696C654D
:101FCC00643A2066696C6520222573222C206C698A
:101FDC006E652025640A00006D61696E2861726768
:101FEC00633D25642C20617267763D5B0000000028
:101FFC002C20000022257322000000005D293B0AE2
:10200C0000000000537461636B206672616D653A69
:10201C000A000000205230203D2020253038580A7C
:10202C0000000000205231203D2020253038580A75
:10203C0000000000205232203D2020253038580A64
:10204C0000000000205233203D2020253038580A53
:10205C000000000020523132203D20253038580A33
:10206C0000000000204C52203D2020253038580A1A
:10207C0000000000205043203D2020253038580A15
:10208C000000000020505352203D20253038580AC3
:10209C00000000004653522F4641523A0A000000FD
:1020AC002043465352203D2020253038580A00004A
:1020BC002048465352203D2020253038580A000035
:1020CC002044465352203D2020253038580A000029
:1020DC002041465352203D2020253038580A00001C
:1020EC00204D4D464152203D20253038580A0000E5
:1020FC002042464152203D2020253038580A00000D
:10210C004D6973630A000000204C522F4558435F01
:10211C0052455455524E3D20253038580A00000087
:10212C005B486172644661756C745D0A0000000066
:10213C005B4275734661756C745D0A005B55736127
:10214C0067654661756C745D0A0000004300232DC1
:10215C00302B2000686C4C006566674546470030A4
:10216C0031323334353637383941424344454600F1
:10217C0030313233343536373839616263646566F1
:01218C000052
:10219000785634129000002000000000000000007B
:1021A00000000000010203040607080900366E0162
:1021B000000000000000000000000000000000001F
:1021C000000000000000000000000000000000000F
:1021D000582100080000000000000000000000007E
:1021E00000000000000000000000000000000000EF
:1021F00000000000000000000000000000000000DF
:1022000000000000000000000000000000000000CE
:082210002000002032547698F2
:04000005080001D11D
:00000001FF
